{
  "_format": "hh-sol-artifact-1",
  "contractName": "Token",
  "sourceName": "contracts/Token.sol",
  "abi": [
    {
      "inputs": [],
      "stateMutability": "nonpayable",
      "type": "constructor"
    },
    {
      "anonymous": false,
      "inputs": [
        {
          "indexed": true,
          "internalType": "address",
          "name": "owner",
          "type": "address"
        },
        {
          "indexed": true,
          "internalType": "address",
          "name": "spender",
          "type": "address"
        },
        {
          "indexed": false,
          "internalType": "uint256",
          "name": "value",
          "type": "uint256"
        }
      ],
      "name": "Approval",
      "type": "event"
    },
    {
      "anonymous": false,
      "inputs": [
        {
          "indexed": true,
          "internalType": "address",
          "name": "from",
          "type": "address"
        },
        {
          "indexed": true,
          "internalType": "address",
          "name": "to",
          "type": "address"
        },
        {
          "indexed": false,
          "internalType": "uint256",
          "name": "value",
          "type": "uint256"
        }
      ],
      "name": "Transfer",
      "type": "event"
    },
    {
      "inputs": [
        {
          "internalType": "address",
          "name": "owner",
          "type": "address"
        },
        {
          "internalType": "address",
          "name": "spender",
          "type": "address"
        }
      ],
      "name": "allowance",
      "outputs": [
        {
          "internalType": "uint256",
          "name": "",
          "type": "uint256"
        }
      ],
      "stateMutability": "view",
      "type": "function"
    },
    {
      "inputs": [
        {
          "internalType": "address",
          "name": "spender",
          "type": "address"
        },
        {
          "internalType": "uint256",
          "name": "amount",
          "type": "uint256"
        }
      ],
      "name": "approve",
      "outputs": [
        {
          "internalType": "bool",
          "name": "",
          "type": "bool"
        }
      ],
      "stateMutability": "nonpayable",
      "type": "function"
    },
    {
      "inputs": [
        {
          "internalType": "address",
          "name": "account",
          "type": "address"
        }
      ],
      "name": "balanceOf",
      "outputs": [
        {
          "internalType": "uint256",
          "name": "",
          "type": "uint256"
        }
      ],
      "stateMutability": "view",
      "type": "function"
    },
    {
      "inputs": [],
      "name": "decimals",
      "outputs": [
        {
          "internalType": "uint8",
          "name": "",
          "type": "uint8"
        }
      ],
      "stateMutability": "view",
      "type": "function"
    },
    {
      "inputs": [
        {
          "internalType": "address",
          "name": "spender",
          "type": "address"
        },
        {
          "internalType": "uint256",
          "name": "subtractedValue",
          "type": "uint256"
        }
      ],
      "name": "decreaseAllowance",
      "outputs": [
        {
          "internalType": "bool",
          "name": "",
          "type": "bool"
        }
      ],
      "stateMutability": "nonpayable",
      "type": "function"
    },
    {
      "inputs": [
        {
          "internalType": "address",
          "name": "spender",
          "type": "address"
        },
        {
          "internalType": "uint256",
          "name": "addedValue",
          "type": "uint256"
        }
      ],
      "name": "increaseAllowance",
      "outputs": [
        {
          "internalType": "bool",
          "name": "",
          "type": "bool"
        }
      ],
      "stateMutability": "nonpayable",
      "type": "function"
    },
    {
      "inputs": [
        {
          "internalType": "uint256",
          "name": "amount",
          "type": "uint256"
        }
      ],
      "name": "increaseSupply",
      "outputs": [],
      "stateMutability": "nonpayable",
      "type": "function"
    },
    {
      "inputs": [],
      "name": "name",
      "outputs": [
        {
          "internalType": "string",
          "name": "",
          "type": "string"
        }
      ],
      "stateMutability": "view",
      "type": "function"
    },
    {
      "inputs": [],
      "name": "symbol",
      "outputs": [
        {
          "internalType": "string",
          "name": "",
          "type": "string"
        }
      ],
      "stateMutability": "view",
      "type": "function"
    },
    {
      "inputs": [],
      "name": "totalSupply",
      "outputs": [
        {
          "internalType": "uint256",
          "name": "",
          "type": "uint256"
        }
      ],
      "stateMutability": "view",
      "type": "function"
    },
    {
      "inputs": [
        {
          "internalType": "address",
          "name": "to",
          "type": "address"
        },
        {
          "internalType": "uint256",
          "name": "amount",
          "type": "uint256"
        }
      ],
      "name": "transfer",
      "outputs": [
        {
          "internalType": "bool",
          "name": "",
          "type": "bool"
        }
      ],
      "stateMutability": "nonpayable",
      "type": "function"
    },
    {
      "inputs": [
        {
          "internalType": "address",
          "name": "from",
          "type": "address"
        },
        {
          "internalType": "address",
          "name": "to",
          "type": "address"
        },
        {
          "internalType": "uint256",
          "name": "amount",
          "type": "uint256"
        }
      ],
      "name": "transferFrom",
      "outputs": [
        {
          "internalType": "bool",
          "name": "",
          "type": "bool"
        }
      ],
      "stateMutability": "nonpayable",
      "type": "function"
    }
  ],
  "bytecode": "0x60806040523480156200001157600080fd5b506040518060400160405280600481526020017f476f6c64000000000000000000000000000000000000000000000000000000008152506040518060400160405280600381526020017f474c44000000000000000000000000000000000000000000000000000000000081525081600390805190602001906200009692919062000292565b508060049080519060200190620000af92919062000292565b50505033600560006101000a81548173ffffffffffffffffffffffffffffffffffffffff021916908373ffffffffffffffffffffffffffffffffffffffff16021790555062000109336305f5e1006200010f60201b60201c565b620004ee565b600073ffffffffffffffffffffffffffffffffffffffff168273ffffffffffffffffffffffffffffffffffffffff16141562000182576040517f08c379a00000000000000000000000000000000000000000000000000000000081526004016200017990620003a3565b60405180910390fd5b62000196600083836200028860201b60201c565b8060026000828254620001aa9190620003fe565b92505081905550806000808473ffffffffffffffffffffffffffffffffffffffff1673ffffffffffffffffffffffffffffffffffffffff1681526020019081526020016000206000828254620002019190620003fe565b925050819055508173ffffffffffffffffffffffffffffffffffffffff16600073ffffffffffffffffffffffffffffffffffffffff167fddf252ad1be2c89b69c2b068fc378daa952ba7f163c4a11628f55a4df523b3ef836040516200026891906200046c565b60405180910390a362000284600083836200028d60201b60201c565b5050565b505050565b505050565b828054620002a090620004b8565b90600052602060002090601f016020900481019282620002c4576000855562000310565b82601f10620002df57805160ff191683800117855562000310565b8280016001018555821562000310579182015b828111156200030f578251825591602001919060010190620002f2565b5b5090506200031f919062000323565b5090565b5b808211156200033e57600081600090555060010162000324565b5090565b600082825260208201905092915050565b7f45524332303a206d696e7420746f20746865207a65726f206164647265737300600082015250565b60006200038b601f8362000342565b9150620003988262000353565b602082019050919050565b60006020820190508181036000830152620003be816200037c565b9050919050565b6000819050919050565b7f4e487b7100000000000000000000000000000000000000000000000000000000600052601160045260246000fd5b60006200040b82620003c5565b91506200041883620003c5565b9250827fffffffffffffffffffffffffffffffffffffffffffffffffffffffffffffffff0382111562000450576200044f620003cf565b5b828201905092915050565b6200046681620003c5565b82525050565b60006020820190506200048360008301846200045b565b92915050565b7f4e487b7100000000000000000000000000000000000000000000000000000000600052602260045260246000fd5b60006002820490506001821680620004d157607f821691505b60208210811415620004e857620004e762000489565b5b50919050565b6114b780620004fe6000396000f3fe608060405234801561001057600080fd5b50600436106100b45760003560e01c806370a082311161007157806370a08231146101a357806395d89b41146101d3578063a457c2d7146101f1578063a9059cbb14610221578063b921e16314610251578063dd62ed3e1461026d576100b4565b806306fdde03146100b9578063095ea7b3146100d757806318160ddd1461010757806323b872dd14610125578063313ce567146101555780633950935114610173575b600080fd5b6100c161029d565b6040516100ce9190610cd8565b60405180910390f35b6100f160048036038101906100ec9190610d93565b61032f565b6040516100fe9190610dee565b60405180910390f35b61010f610352565b60405161011c9190610e18565b60405180910390f35b61013f600480360381019061013a9190610e33565b61035c565b60405161014c9190610dee565b60405180910390f35b61015d61038b565b60405161016a9190610ea2565b60405180910390f35b61018d60048036038101906101889190610d93565b610394565b60405161019a9190610dee565b60405180910390f35b6101bd60048036038101906101b89190610ebd565b6103cb565b6040516101ca9190610e18565b60405180910390f35b6101db610413565b6040516101e89190610cd8565b60405180910390f35b61020b60048036038101906102069190610d93565b6104a5565b6040516102189190610dee565b60405180910390f35b61023b60048036038101906102369190610d93565b61051c565b6040516102489190610dee565b60405180910390f35b61026b60048036038101906102669190610eea565b61053f565b005b61028760048036038101906102829190610f17565b61056e565b6040516102949190610e18565b60405180910390f35b6060600380546102ac90610f86565b80601f01602080910402602001604051908101604052809291908181526020018280546102d890610f86565b80156103255780601f106102fa57610100808354040283529160200191610325565b820191906000526020600020905b81548152906001019060200180831161030857829003601f168201915b5050505050905090565b60008061033a6105f5565b90506103478185856105fd565b600191505092915050565b6000600254905090565b6000806103676105f5565b90506103748582856107c8565b61037f858585610854565b60019150509392505050565b60006012905090565b60008061039f6105f5565b90506103c08185856103b1858961056e565b6103bb9190610fe7565b6105fd565b600191505092915050565b60008060008373ffffffffffffffffffffffffffffffffffffffff1673ffffffffffffffffffffffffffffffffffffffff168152602001908152602001600020549050919050565b60606004805461042290610f86565b80601f016020809104026020016040519081016040528092919081815260200182805461044e90610f86565b801561049b5780601f106104705761010080835404028352916020019161049b565b820191906000526020600020905b81548152906001019060200180831161047e57829003601f168201915b5050505050905090565b6000806104b06105f5565b905060006104be828661056e565b905083811015610503576040517f08c379a00000000000000000000000000000000000000000000000000000000081526004016104fa906110af565b60405180910390fd5b61051082868684036105fd565b60019250505092915050565b6000806105276105f5565b9050610534818585610854565b600191505092915050565b61056b600560009054906101000a900473ffffffffffffffffffffffffffffffffffffffff1682610ad5565b50565b6000600160008473ffffffffffffffffffffffffffffffffffffffff1673ffffffffffffffffffffffffffffffffffffffff16815260200190815260200160002060008373ffffffffffffffffffffffffffffffffffffffff1673ffffffffffffffffffffffffffffffffffffffff16815260200190815260200160002054905092915050565b600033905090565b600073ffffffffffffffffffffffffffffffffffffffff168373ffffffffffffffffffffffffffffffffffffffff16141561066d576040517f08c379a000000000000000000000000000000000000000000000000000000000815260040161066490611141565b60405180910390fd5b600073ffffffffffffffffffffffffffffffffffffffff168273ffffffffffffffffffffffffffffffffffffffff1614156106dd576040517f08c379a00000000000000000000000000000000000000000000000000000000081526004016106d4906111d3565b60405180910390fd5b80600160008573ffffffffffffffffffffffffffffffffffffffff1673ffffffffffffffffffffffffffffffffffffffff16815260200190815260200160002060008473ffffffffffffffffffffffffffffffffffffffff1673ffffffffffffffffffffffffffffffffffffffff168152602001908152602001600020819055508173ffffffffffffffffffffffffffffffffffffffff168373ffffffffffffffffffffffffffffffffffffffff167f8c5be1e5ebec7d5bd14f71427d1e84f3dd0314c0f7b2291e5b200ac8c7c3b925836040516107bb9190610e18565b60405180910390a3505050565b60006107d4848461056e565b90507fffffffffffffffffffffffffffffffffffffffffffffffffffffffffffffffff811461084e5781811015610840576040517f08c379a00000000000000000000000000000000000000000000000000000000081526004016108379061123f565b60405180910390fd5b61084d84848484036105fd565b5b50505050565b600073ffffffffffffffffffffffffffffffffffffffff168373ffffffffffffffffffffffffffffffffffffffff1614156108c4576040517f08c379a00000000000000000000000000000000000000000000000000000000081526004016108bb906112d1565b60405180910390fd5b600073ffffffffffffffffffffffffffffffffffffffff168273ffffffffffffffffffffffffffffffffffffffff161415610934576040517f08c379a000000000000000000000000000000000000000000000000000000000815260040161092b90611363565b60405180910390fd5b61093f838383610c35565b60008060008573ffffffffffffffffffffffffffffffffffffffff1673ffffffffffffffffffffffffffffffffffffffff168152602001908152602001600020549050818110156109c5576040517f08c379a00000000000000000000000000000000000000000000000000000000081526004016109bc906113f5565b60405180910390fd5b8181036000808673ffffffffffffffffffffffffffffffffffffffff1673ffffffffffffffffffffffffffffffffffffffff16815260200190815260200160002081905550816000808573ffffffffffffffffffffffffffffffffffffffff1673ffffffffffffffffffffffffffffffffffffffff1681526020019081526020016000206000828254610a589190610fe7565b925050819055508273ffffffffffffffffffffffffffffffffffffffff168473ffffffffffffffffffffffffffffffffffffffff167fddf252ad1be2c89b69c2b068fc378daa952ba7f163c4a11628f55a4df523b3ef84604051610abc9190610e18565b60405180910390a3610acf848484610c3a565b50505050565b600073ffffffffffffffffffffffffffffffffffffffff168273ffffffffffffffffffffffffffffffffffffffff161415610b45576040517f08c379a0000000000000000000000000000000000000000000000000000000008152600401610b3c90611461565b60405180910390fd5b610b5160008383610c35565b8060026000828254610b639190610fe7565b92505081905550806000808473ffffffffffffffffffffffffffffffffffffffff1673ffffffffffffffffffffffffffffffffffffffff1681526020019081526020016000206000828254610bb89190610fe7565b925050819055508173ffffffffffffffffffffffffffffffffffffffff16600073ffffffffffffffffffffffffffffffffffffffff167fddf252ad1be2c89b69c2b068fc378daa952ba7f163c4a11628f55a4df523b3ef83604051610c1d9190610e18565b60405180910390a3610c3160008383610c3a565b5050565b505050565b505050565b600081519050919050565b600082825260208201905092915050565b60005b83811015610c79578082015181840152602081019050610c5e565b83811115610c88576000848401525b50505050565b6000601f19601f8301169050919050565b6000610caa82610c3f565b610cb48185610c4a565b9350610cc4818560208601610c5b565b610ccd81610c8e565b840191505092915050565b60006020820190508181036000830152610cf28184610c9f565b905092915050565b600080fd5b600073ffffffffffffffffffffffffffffffffffffffff82169050919050565b6000610d2a82610cff565b9050919050565b610d3a81610d1f565b8114610d4557600080fd5b50565b600081359050610d5781610d31565b92915050565b6000819050919050565b610d7081610d5d565b8114610d7b57600080fd5b50565b600081359050610d8d81610d67565b92915050565b60008060408385031215610daa57610da9610cfa565b5b6000610db885828601610d48565b9250506020610dc985828601610d7e565b9150509250929050565b60008115159050919050565b610de881610dd3565b82525050565b6000602082019050610e036000830184610ddf565b92915050565b610e1281610d5d565b82525050565b6000602082019050610e2d6000830184610e09565b92915050565b600080600060608486031215610e4c57610e4b610cfa565b5b6000610e5a86828701610d48565b9350506020610e6b86828701610d48565b9250506040610e7c86828701610d7e565b9150509250925092565b600060ff82169050919050565b610e9c81610e86565b82525050565b6000602082019050610eb76000830184610e93565b92915050565b600060208284031215610ed357610ed2610cfa565b5b6000610ee184828501610d48565b91505092915050565b600060208284031215610f0057610eff610cfa565b5b6000610f0e84828501610d7e565b91505092915050565b60008060408385031215610f2e57610f2d610cfa565b5b6000610f3c85828601610d48565b9250506020610f4d85828601610d48565b9150509250929050565b7f4e487b7100000000000000000000000000000000000000000000000000000000600052602260045260246000fd5b60006002820490506001821680610f9e57607f821691505b60208210811415610fb257610fb1610f57565b5b50919050565b7f4e487b7100000000000000000000000000000000000000000000000000000000600052601160045260246000fd5b6000610ff282610d5d565b9150610ffd83610d5d565b9250827fffffffffffffffffffffffffffffffffffffffffffffffffffffffffffffffff0382111561103257611031610fb8565b5b828201905092915050565b7f45524332303a2064656372656173656420616c6c6f77616e63652062656c6f7760008201527f207a65726f000000000000000000000000000000000000000000000000000000602082015250565b6000611099602583610c4a565b91506110a48261103d565b604082019050919050565b600060208201905081810360008301526110c88161108c565b9050919050565b7f45524332303a20617070726f76652066726f6d20746865207a65726f2061646460008201527f7265737300000000000000000000000000000000000000000000000000000000602082015250565b600061112b602483610c4a565b9150611136826110cf565b604082019050919050565b6000602082019050818103600083015261115a8161111e565b9050919050565b7f45524332303a20617070726f766520746f20746865207a65726f20616464726560008201527f7373000000000000000000000000000000000000000000000000000000000000602082015250565b60006111bd602283610c4a565b91506111c882611161565b604082019050919050565b600060208201905081810360008301526111ec816111b0565b9050919050565b7f45524332303a20696e73756666696369656e7420616c6c6f77616e6365000000600082015250565b6000611229601d83610c4a565b9150611234826111f3565b602082019050919050565b600060208201905081810360008301526112588161121c565b9050919050565b7f45524332303a207472616e736665722066726f6d20746865207a65726f20616460008201527f6472657373000000000000000000000000000000000000000000000000000000602082015250565b60006112bb602583610c4a565b91506112c68261125f565b604082019050919050565b600060208201905081810360008301526112ea816112ae565b9050919050565b7f45524332303a207472616e7366657220746f20746865207a65726f206164647260008201527f6573730000000000000000000000000000000000000000000000000000000000602082015250565b600061134d602383610c4a565b9150611358826112f1565b604082019050919050565b6000602082019050818103600083015261137c81611340565b9050919050565b7f45524332303a207472616e7366657220616d6f756e742065786365656473206260008201527f616c616e63650000000000000000000000000000000000000000000000000000602082015250565b60006113df602683610c4a565b91506113ea82611383565b604082019050919050565b6000602082019050818103600083015261140e816113d2565b9050919050565b7f45524332303a206d696e7420746f20746865207a65726f206164647265737300600082015250565b600061144b601f83610c4a565b915061145682611415565b602082019050919050565b6000602082019050818103600083015261147a8161143e565b905091905056fea2646970667358221220450d9449046950b7283c34e2197ba15d825f8bfdcbb6f77b189c10b567e8543764736f6c63430008090033",
  "linkReferences": {},
  "deployedLinkReferences": {}
}